{
  "abi": [
    {
      "inputs": [
        {
          "internalType": "contract IEntryPoint",
          "name": "anEntryPoint",
          "type": "address"
        },
        {
          "internalType": "contract IProviderManager",
          "name": "providerManager_",
          "type": "address"
        }
      ],
      "stateMutability": "nonpayable",
      "type": "constructor"
    },
    {
      "anonymous": false,
      "inputs": [
        {
          "indexed": false,
          "internalType": "address",
          "name": "previousAdmin",
          "type": "address"
        },
        {
          "indexed": false,
          "internalType": "address",
          "name": "newAdmin",
          "type": "address"
        }
      ],
      "name": "AdminChanged",
      "type": "event"
    },
    {
      "anonymous": false,
      "inputs": [
        {
          "indexed": true,
          "internalType": "address",
          "name": "beacon",
          "type": "address"
        }
      ],
      "name": "BeaconUpgraded",
      "type": "event"
    },
    {
      "anonymous": false,
      "inputs": [
        {
          "indexed": false,
          "internalType": "uint8",
          "name": "version",
          "type": "uint8"
        }
      ],
      "name": "Initialized",
      "type": "event"
    },
    {
      "anonymous": false,
      "inputs": [
        {
          "indexed": false,
          "internalType": "string",
          "name": "info",
          "type": "string"
        }
      ],
      "name": "LogString",
      "type": "event"
    },
    {
      "anonymous": false,
      "inputs": [
        {
          "indexed": true,
          "internalType": "contract IEntryPoint",
          "name": "entryPoint",
          "type": "address"
        },
        {
          "indexed": true,
          "internalType": "string",
          "name": "ownerId",
          "type": "string"
        }
      ],
      "name": "SimpleAccountInitialized",
      "type": "event"
    },
    {
      "anonymous": false,
      "inputs": [
        {
          "indexed": true,
          "internalType": "address",
          "name": "implementation",
          "type": "address"
        }
      ],
      "name": "Upgraded",
      "type": "event"
    },
    {
      "inputs": [],
      "name": "addDeposit",
      "outputs": [],
      "stateMutability": "payable",
      "type": "function"
    },
    {
      "inputs": [],
      "name": "entryPoint",
      "outputs": [
        {
          "internalType": "contract IEntryPoint",
          "name": "",
          "type": "address"
        }
      ],
      "stateMutability": "view",
      "type": "function"
    },
    {
      "inputs": [
        {
          "internalType": "address",
          "name": "dest",
          "type": "address"
        },
        {
          "internalType": "uint256",
          "name": "value",
          "type": "uint256"
        },
        {
          "internalType": "bytes",
          "name": "func",
          "type": "bytes"
        }
      ],
      "name": "execute",
      "outputs": [],
      "stateMutability": "nonpayable",
      "type": "function"
    },
    {
      "inputs": [
        {
          "internalType": "address[]",
          "name": "dest",
          "type": "address[]"
        },
        {
          "internalType": "bytes[]",
          "name": "func",
          "type": "bytes[]"
        }
      ],
      "name": "executeBatch",
      "outputs": [],
      "stateMutability": "nonpayable",
      "type": "function"
    },
    {
      "inputs": [],
      "name": "getDeposit",
      "outputs": [
        {
          "internalType": "uint256",
          "name": "",
          "type": "uint256"
        }
      ],
      "stateMutability": "view",
      "type": "function"
    },
    {
      "inputs": [],
      "name": "getNonce",
      "outputs": [
        {
          "internalType": "uint256",
          "name": "",
          "type": "uint256"
        }
      ],
      "stateMutability": "view",
      "type": "function"
    },
    {
      "inputs": [
        {
          "internalType": "string",
          "name": "anOwnerid",
          "type": "string"
        }
      ],
      "name": "initialize",
      "outputs": [],
      "stateMutability": "nonpayable",
      "type": "function"
    },
    {
      "inputs": [
        {
          "internalType": "address",
          "name": "",
          "type": "address"
        },
        {
          "internalType": "address",
          "name": "",
          "type": "address"
        },
        {
          "internalType": "uint256[]",
          "name": "",
          "type": "uint256[]"
        },
        {
          "internalType": "uint256[]",
          "name": "",
          "type": "uint256[]"
        },
        {
          "internalType": "bytes",
          "name": "",
          "type": "bytes"
        }
      ],
      "name": "onERC1155BatchReceived",
      "outputs": [
        {
          "internalType": "bytes4",
          "name": "",
          "type": "bytes4"
        }
      ],
      "stateMutability": "pure",
      "type": "function"
    },
    {
      "inputs": [
        {
          "internalType": "address",
          "name": "",
          "type": "address"
        },
        {
          "internalType": "address",
          "name": "",
          "type": "address"
        },
        {
          "internalType": "uint256",
          "name": "",
          "type": "uint256"
        },
        {
          "internalType": "uint256",
          "name": "",
          "type": "uint256"
        },
        {
          "internalType": "bytes",
          "name": "",
          "type": "bytes"
        }
      ],
      "name": "onERC1155Received",
      "outputs": [
        {
          "internalType": "bytes4",
          "name": "",
          "type": "bytes4"
        }
      ],
      "stateMutability": "pure",
      "type": "function"
    },
    {
      "inputs": [
        {
          "internalType": "address",
          "name": "",
          "type": "address"
        },
        {
          "internalType": "address",
          "name": "",
          "type": "address"
        },
        {
          "internalType": "uint256",
          "name": "",
          "type": "uint256"
        },
        {
          "internalType": "bytes",
          "name": "",
          "type": "bytes"
        }
      ],
      "name": "onERC721Received",
      "outputs": [
        {
          "internalType": "bytes4",
          "name": "",
          "type": "bytes4"
        }
      ],
      "stateMutability": "pure",
      "type": "function"
    },
    {
      "inputs": [],
      "name": "ownerId",
      "outputs": [
        {
          "internalType": "string",
          "name": "",
          "type": "string"
        }
      ],
      "stateMutability": "view",
      "type": "function"
    },
    {
      "inputs": [],
      "name": "proxiableUUID",
      "outputs": [
        {
          "internalType": "bytes32",
          "name": "",
          "type": "bytes32"
        }
      ],
      "stateMutability": "view",
      "type": "function"
    },
    {
      "inputs": [
        {
          "internalType": "bytes4",
          "name": "interfaceId",
          "type": "bytes4"
        }
      ],
      "name": "supportsInterface",
      "outputs": [
        {
          "internalType": "bool",
          "name": "",
          "type": "bool"
        }
      ],
      "stateMutability": "view",
      "type": "function"
    },
    {
      "inputs": [
        {
          "internalType": "address",
          "name": "",
          "type": "address"
        },
        {
          "internalType": "address",
          "name": "",
          "type": "address"
        },
        {
          "internalType": "address",
          "name": "",
          "type": "address"
        },
        {
          "internalType": "uint256",
          "name": "",
          "type": "uint256"
        },
        {
          "internalType": "bytes",
          "name": "",
          "type": "bytes"
        },
        {
          "internalType": "bytes",
          "name": "",
          "type": "bytes"
        }
      ],
      "name": "tokensReceived",
      "outputs": [],
      "stateMutability": "pure",
      "type": "function"
    },
    {
      "inputs": [
        {
          "internalType": "address",
          "name": "newImplementation",
          "type": "address"
        }
      ],
      "name": "upgradeTo",
      "outputs": [],
      "stateMutability": "nonpayable",
      "type": "function"
    },
    {
      "inputs": [
        {
          "internalType": "address",
          "name": "newImplementation",
          "type": "address"
        },
        {
          "internalType": "bytes",
          "name": "data",
          "type": "bytes"
        }
      ],
      "name": "upgradeToAndCall",
      "outputs": [],
      "stateMutability": "payable",
      "type": "function"
    },
    {
      "inputs": [
        {
          "components": [
            {
              "internalType": "address",
              "name": "sender",
              "type": "address"
            },
            {
              "internalType": "uint256",
              "name": "nonce",
              "type": "uint256"
            },
            {
              "internalType": "bytes",
              "name": "initCode",
              "type": "bytes"
            },
            {
              "internalType": "bytes",
              "name": "callData",
              "type": "bytes"
            },
            {
              "internalType": "uint256",
              "name": "callGasLimit",
              "type": "uint256"
            },
            {
              "internalType": "uint256",
              "name": "verificationGasLimit",
              "type": "uint256"
            },
            {
              "internalType": "uint256",
              "name": "preVerificationGas",
              "type": "uint256"
            },
            {
              "internalType": "uint256",
              "name": "maxFeePerGas",
              "type": "uint256"
            },
            {
              "internalType": "uint256",
              "name": "maxPriorityFeePerGas",
              "type": "uint256"
            },
            {
              "internalType": "bytes",
              "name": "paymasterAndData",
              "type": "bytes"
            },
            {
              "internalType": "bytes",
              "name": "signature",
              "type": "bytes"
            }
          ],
          "internalType": "struct UserOperation",
          "name": "userOp",
          "type": "tuple"
        },
        {
          "internalType": "bytes32",
          "name": "userOpHash",
          "type": "bytes32"
        },
        {
          "internalType": "uint256",
          "name": "missingAccountFunds",
          "type": "uint256"
        }
      ],
      "name": "validateUserOp",
      "outputs": [
        {
          "internalType": "uint256",
          "name": "validationData",
          "type": "uint256"
        }
      ],
      "stateMutability": "nonpayable",
      "type": "function"
    },
    {
      "inputs": [
        {
          "internalType": "address payable",
          "name": "withdrawAddress",
          "type": "address"
        },
        {
          "internalType": "uint256",
          "name": "amount",
          "type": "uint256"
        }
      ],
      "name": "withdrawDepositTo",
      "outputs": [],
      "stateMutability": "nonpayable",
      "type": "function"
    },
    {
      "stateMutability": "payable",
      "type": "receive"
    }
  ],
  "bytecode": {
    "object": "0x60e06040523073ffffffffffffffffffffffffffffffffffffffff1660809073ffffffffffffffffffffffffffffffffffffffff168152503480156200004457600080fd5b50604051620037813803806200378183398181016040528101906200006a919062000273565b8173ffffffffffffffffffffffffffffffffffffffff1660c08173ffffffffffffffffffffffffffffffffffffffff16815250508073ffffffffffffffffffffffffffffffffffffffff1660a08173ffffffffffffffffffffffffffffffffffffffff1681525050620000e2620000ea60201b60201c565b50506200039e565b600060019054906101000a900460ff16156200013d576040517f08c379a0000000000000000000000000000000000000000000000000000000008152600401620001349062000341565b60405180910390fd5b60ff801660008054906101000a900460ff1660ff1614620001ae5760ff6000806101000a81548160ff021916908360ff1602179055507f7f26b83ff96e1f2b6a682f133852f6798a09c465da95921460cefb384740249860ff604051620001a5919062000381565b60405180910390a15b565b600080fd5b600073ffffffffffffffffffffffffffffffffffffffff82169050919050565b6000620001e282620001b5565b9050919050565b6000620001f682620001d5565b9050919050565b6200020881620001e9565b81146200021457600080fd5b50565b6000815190506200022881620001fd565b92915050565b60006200023b82620001d5565b9050919050565b6200024d816200022e565b81146200025957600080fd5b50565b6000815190506200026d8162000242565b92915050565b600080604083850312156200028d576200028c620001b0565b5b60006200029d8582860162000217565b9250506020620002b0858286016200025c565b9150509250929050565b600082825260208201905092915050565b7f496e697469616c697a61626c653a20636f6e747261637420697320696e69746960008201527f616c697a696e6700000000000000000000000000000000000000000000000000602082015250565b600062000329602783620002ba565b91506200033682620002cb565b604082019050919050565b600060208201905081810360008301526200035c816200031a565b9050919050565b600060ff82169050919050565b6200037b8162000363565b82525050565b600060208201905062000398600083018462000370565b92915050565b60805160a05160c051613390620003f160003960008181610bde015261144b0152600061127c015260008181610737015281816107c5015281816109e701528181610a750152610b2501526133906000f3fe60806040526004361061010c5760003560e01c80634f1ef28611610095578063bc197c8111610064578063bc197c8114610343578063c399ec8814610380578063d087d288146103ab578063f23a6e61146103d6578063f62d18881461041357610113565b80634f1ef286146102a857806352d1902d146102c4578063b0d691fe146102ef578063b61d27f61461031a57610113565b806318dfb3c7116100dc57806318dfb3c7146101e65780633659cfe61461020f5780633a871cdd146102385780634a58db19146102755780634d44560d1461027f57610113565b806223de2914610118578063019c08f51461014157806301ffc9a71461016c578063150b7a02146101a957610113565b3661011357005b600080fd5b34801561012457600080fd5b5061013f600480360381019061013a919061187c565b61043c565b005b34801561014d57600080fd5b50610156610446565b60405161016391906119db565b60405180910390f35b34801561017857600080fd5b50610193600480360381019061018e9190611a55565b6104d4565b6040516101a09190611a9d565b60405180910390f35b3480156101b557600080fd5b506101d060048036038101906101cb9190611ab8565b61060e565b6040516101dd9190611b4f565b60405180910390f35b3480156101f257600080fd5b5061020d60048036038101906102089190611c16565b610623565b005b34801561021b57600080fd5b5061023660048036038101906102319190611c97565b610735565b005b34801561024457600080fd5b5061025f600480360381019061025a9190611d1f565b6108bd565b60405161026c9190611d9d565b60405180910390f35b61027d6108f0565b005b34801561028b57600080fd5b506102a660048036038101906102a19190611df6565b610965565b005b6102c260048036038101906102bd9190611f66565b6109e5565b005b3480156102d057600080fd5b506102d9610b21565b6040516102e69190611fd1565b60405180910390f35b3480156102fb57600080fd5b50610304610bda565b604051610311919061204b565b60405180910390f35b34801561032657600080fd5b50610341600480360381019061033c9190612066565b610c02565b005b34801561034f57600080fd5b5061036a60048036038101906103659190612130565b610c5f565b6040516103779190611b4f565b60405180910390f35b34801561038c57600080fd5b50610395610c77565b6040516103a29190611d9d565b60405180910390f35b3480156103b757600080fd5b506103c0610cff565b6040516103cd9190611d9d565b60405180910390f35b3480156103e257600080fd5b506103fd60048036038101906103f8919061220c565b610d8a565b60405161040a9190611b4f565b60405180910390f35b34801561041f57600080fd5b5061043a60048036038101906104359190612347565b610da0565b005b5050505050505050565b60018054610453906123bf565b80601f016020809104026020016040519081016040528092919081815260200182805461047f906123bf565b80156104cc5780601f106104a1576101008083540402835291602001916104cc565b820191906000526020600020905b8154815290600101906020018083116104af57829003601f168201915b505050505081565b60007f150b7a02000000000000000000000000000000000000000000000000000000007bffffffffffffffffffffffffffffffffffffffffffffffffffffffff1916827bffffffffffffffffffffffffffffffffffffffffffffffffffffffff1916148061059f57507f4e2312e0000000000000000000000000000000000000000000000000000000007bffffffffffffffffffffffffffffffffffffffffffffffffffffffff1916827bffffffffffffffffffffffffffffffffffffffffffffffffffffffff1916145b8061060757507f01ffc9a7000000000000000000000000000000000000000000000000000000007bffffffffffffffffffffffffffffffffffffffffffffffffffffffff1916827bffffffffffffffffffffffffffffffffffffffffffffffffffffffff1916145b9050919050565b600063150b7a0260e01b905095945050505050565b61062b610ee0565b818190508484905014610673576040517f08c379a000000000000000000000000000000000000000000000000000000000815260040161066a9061243c565b60405180910390fd5b60005b8484905081101561072e5761071b8585838181106106975761069661245c565b5b90506020020160208101906106ac9190611c97565b60008585858181106106c1576106c061245c565b5b90506020028101906106d3919061249a565b8080601f016020809104026020016040519081016040528093929190818152602001838380828437600081840152601f19601f82011690508083019250505050505050610f57565b80806107269061252c565b915050610676565b5050505050565b7f000000000000000000000000000000000000000000000000000000000000000073ffffffffffffffffffffffffffffffffffffffff163073ffffffffffffffffffffffffffffffffffffffff16036107c3576040517f08c379a00000000000000000000000000000000000000000000000000000000081526004016107ba906125e6565b60405180910390fd5b7f000000000000000000000000000000000000000000000000000000000000000073ffffffffffffffffffffffffffffffffffffffff16610802610fdb565b73ffffffffffffffffffffffffffffffffffffffff1614610858576040517f08c379a000000000000000000000000000000000000000000000000000000000815260040161084f90612678565b60405180910390fd5b61086181611032565b6108ba81600067ffffffffffffffff8111156108805761087f611e3b565b5b6040519080825280601f01601f1916602001820160405280156108b25781602001600182028036833780820191505090505b50600061103d565b50565b60006108c7610ee0565b6108d184846111ab565b90506108e08460200135611361565b6108e982611364565b9392505050565b6108f8610bda565b73ffffffffffffffffffffffffffffffffffffffff1663b760faf934306040518363ffffffff1660e01b815260040161093191906126a7565b6000604051808303818588803b15801561094a57600080fd5b505af115801561095e573d6000803e3d6000fd5b5050505050565b61096d610ee0565b610975610bda565b73ffffffffffffffffffffffffffffffffffffffff1663205c287883836040518363ffffffff1660e01b81526004016109af9291906126d1565b600060405180830381600087803b1580156109c957600080fd5b505af11580156109dd573d6000803e3d6000fd5b505050505050565b7f000000000000000000000000000000000000000000000000000000000000000073ffffffffffffffffffffffffffffffffffffffff163073ffffffffffffffffffffffffffffffffffffffff1603610a73576040517f08c379a0000000000000000000000000000000000000000000000000000000008152600401610a6a906125e6565b60405180910390fd5b7f000000000000000000000000000000000000000000000000000000000000000073ffffffffffffffffffffffffffffffffffffffff16610ab2610fdb565b73ffffffffffffffffffffffffffffffffffffffff1614610b08576040517f08c379a0000000000000000000000000000000000000000000000000000000008152600401610aff90612678565b60405180910390fd5b610b1182611032565b610b1d8282600161103d565b5050565b60007f000000000000000000000000000000000000000000000000000000000000000073ffffffffffffffffffffffffffffffffffffffff163073ffffffffffffffffffffffffffffffffffffffff1614610bb1576040517f08c379a0000000000000000000000000000000000000000000000000000000008152600401610ba89061276c565b60405180910390fd5b7f360894a13ba1a3210667c828492db98dca3e2076cc3735a920a3ca505d382bbc60001b905090565b60007f0000000000000000000000000000000000000000000000000000000000000000905090565b610c0a610ee0565b610c59848484848080601f016020809104026020016040519081016040528093929190818152602001838380828437600081840152601f19601f82011690508083019250505050505050610f57565b50505050565b600063bc197c8160e01b905098975050505050505050565b6000610c81610bda565b73ffffffffffffffffffffffffffffffffffffffff166370a08231306040518263ffffffff1660e01b8152600401610cb991906126a7565b602060405180830381865afa158015610cd6573d6000803e3d6000fd5b505050506040513d601f19601f82011682018060405250810190610cfa91906127a1565b905090565b6000610d09610bda565b73ffffffffffffffffffffffffffffffffffffffff166335567e1a3060006040518363ffffffff1660e01b8152600401610d4492919061282d565b602060405180830381865afa158015610d61573d6000803e3d6000fd5b505050506040513d601f19601f82011682018060405250810190610d8591906127a1565b905090565b600063f23a6e6160e01b90509695505050505050565b60008060019054906101000a900460ff16159050808015610dd15750600160008054906101000a900460ff1660ff16105b80610dfe5750610de030611400565b158015610dfd5750600160008054906101000a900460ff1660ff16145b5b610e3d576040517f08c379a0000000000000000000000000000000000000000000000000000000008152600401610e34906128c8565b60405180910390fd5b60016000806101000a81548160ff021916908360ff1602179055508015610e7a576001600060016101000a81548160ff0219169083151502179055505b610e8382611423565b8015610edc5760008060016101000a81548160ff0219169083151502179055507f7f26b83ff96e1f2b6a682f133852f6798a09c465da95921460cefb38474024986001604051610ed39190612930565b60405180910390a15b5050565b610ee8610bda565b73ffffffffffffffffffffffffffffffffffffffff163373ffffffffffffffffffffffffffffffffffffffff1614610f55576040517f08c379a0000000000000000000000000000000000000000000000000000000008152600401610f4c90612997565b60405180910390fd5b565b6000808473ffffffffffffffffffffffffffffffffffffffff168484604051610f8091906129fe565b60006040518083038185875af1925050503d8060008114610fbd576040519150601f19603f3d011682016040523d82523d6000602084013e610fc2565b606091505b509150915081610fd457805160208201fd5b5050505050565b60006110097f360894a13ba1a3210667c828492db98dca3e2076cc3735a920a3ca505d382bbc60001b6114af565b60000160009054906101000a900473ffffffffffffffffffffffffffffffffffffffff16905090565b61103a610ee0565b50565b6110697f4910fdfa16fed3260ed0e7147f7cc6da11a60208b5b9406d12a635614ffd914360001b6114b9565b60000160009054906101000a900460ff161561108d57611088836114c3565b6111a6565b8273ffffffffffffffffffffffffffffffffffffffff166352d1902d6040518163ffffffff1660e01b8152600401602060405180830381865afa9250505080156110f557506040513d601f19601f820116820180604052508101906110f29190612a2a565b60015b611134576040517f08c379a000000000000000000000000000000000000000000000000000000000815260040161112b90612ac9565b60405180910390fd5b7f360894a13ba1a3210667c828492db98dca3e2076cc3735a920a3ca505d382bbc60001b8114611199576040517f08c379a000000000000000000000000000000000000000000000000000000000815260040161119090612b5b565b60405180910390fd5b506111a583838361157c565b5b505050565b60007fa95e6e2a182411e7a6f9ed114a85c3761d87f9b8f453d842c71235aa64fff99f6040516111da90612bc7565b60405180910390a1600080600080868061014001906111f9919061249a565b8101906112069190612be7565b93509350935093507fa95e6e2a182411e7a6f9ed114a85c3761d87f9b8f453d842c71235aa64fff99f8460405161123d91906119db565b60405180910390a17fa95e6e2a182411e7a6f9ed114a85c3761d87f9b8f453d842c71235aa64fff99f60405161127290612d0a565b60405180910390a17f000000000000000000000000000000000000000000000000000000000000000073ffffffffffffffffffffffffffffffffffffffff16634d184ac38585858560016040518663ffffffff1660e01b81526004016112dc959493929190612e0d565b602060405180830381865afa1580156112f9573d6000803e3d6000fd5b505050506040513d601f19601f8201168201806040525081019061131d9190612eaf565b507fa95e6e2a182411e7a6f9ed114a85c3761d87f9b8f453d842c71235aa64fff99f60405161134b90612f28565b60405180910390a1600094505050505092915050565b50565b600081146113fd5760003373ffffffffffffffffffffffffffffffffffffffff16827fffffffffffffffffffffffffffffffffffffffffffffffffffffffffffffffff906040516113b490612f6e565b600060405180830381858888f193505050503d80600081146113f2576040519150601f19603f3d011682016040523d82523d6000602084013e6113f7565b606091505b50509050505b50565b6000808273ffffffffffffffffffffffffffffffffffffffff163b119050919050565b80600190816114329190613110565b5080604051611441919061321e565b60405180910390207f000000000000000000000000000000000000000000000000000000000000000073ffffffffffffffffffffffffffffffffffffffff167fc27e6dee385f97256803537c89482a201cd863d49397e98ca8dde0930f3d572260405160405180910390a350565b6000819050919050565b6000819050919050565b6114cc81611400565b61150b576040517f08c379a0000000000000000000000000000000000000000000000000000000008152600401611502906132a7565b60405180910390fd5b806115387f360894a13ba1a3210667c828492db98dca3e2076cc3735a920a3ca505d382bbc60001b6114af565b60000160006101000a81548173ffffffffffffffffffffffffffffffffffffffff021916908373ffffffffffffffffffffffffffffffffffffffff16021790555050565b611585836115a8565b6000825111806115925750805b156115a3576115a183836115f7565b505b505050565b6115b1816114c3565b8073ffffffffffffffffffffffffffffffffffffffff167fbc7cd75a20ee27fd9adebab32041f755214dbc6bffa90cc0225b39da2e5c2d3b60405160405180910390a250565b606061161c838360405180606001604052806027815260200161333460279139611624565b905092915050565b60606000808573ffffffffffffffffffffffffffffffffffffffff168560405161164e91906129fe565b600060405180830381855af49150503d8060008114611689576040519150601f19603f3d011682016040523d82523d6000602084013e61168e565b606091505b509150915061169f868383876116aa565b925050509392505050565b6060831561170c576000835103611704576116c485611400565b611703576040517f08c379a00000000000000000000000000000000000000000000000000000000081526004016116fa90613313565b60405180910390fd5b5b829050611717565b611716838361171f565b5b949350505050565b6000825111156117325781518083602001fd5b806040517f08c379a000000000000000000000000000000000000000000000000000000000815260040161176691906119db565b60405180910390fd5b6000604051905090565b600080fd5b600080fd5b600073ffffffffffffffffffffffffffffffffffffffff82169050919050565b60006117ae82611783565b9050919050565b6117be816117a3565b81146117c957600080fd5b50565b6000813590506117db816117b5565b92915050565b6000819050919050565b6117f4816117e1565b81146117ff57600080fd5b50565b600081359050611811816117eb565b92915050565b600080fd5b600080fd5b600080fd5b60008083601f84011261183c5761183b611817565b5b8235905067ffffffffffffffff8111156118595761185861181c565b5b60208301915083600182028301111561187557611874611821565b5b9250929050565b60008060008060008060008060c0898b03121561189c5761189b611779565b5b60006118aa8b828c016117cc565b98505060206118bb8b828c016117cc565b97505060406118cc8b828c016117cc565b96505060606118dd8b828c01611802565b955050608089013567ffffffffffffffff8111156118fe576118fd61177e565b5b61190a8b828c01611826565b945094505060a089013567ffffffffffffffff81111561192d5761192c61177e565b5b6119398b828c01611826565b92509250509295985092959890939650565b600081519050919050565b600082825260208201905092915050565b60005b8381101561198557808201518184015260208101905061196a565b60008484015250505050565b6000601f19601f8301169050919050565b60006119ad8261194b565b6119b78185611956565b93506119c7818560208601611967565b6119d081611991565b840191505092915050565b600060208201905081810360008301526119f581846119a2565b905092915050565b60007fffffffff0000000000000000000000000000000000000000000000000000000082169050919050565b611a32816119fd565b8114611a3d57600080fd5b50565b600081359050611a4f81611a29565b92915050565b600060208284031215611a6b57611a6a611779565b5b6000611a7984828501611a40565b91505092915050565b60008115159050919050565b611a9781611a82565b82525050565b6000602082019050611ab26000830184611a8e565b92915050565b600080600080600060808688031215611ad457611ad3611779565b5b6000611ae2888289016117cc565b9550506020611af3888289016117cc565b9450506040611b0488828901611802565b935050606086013567ffffffffffffffff811115611b2557611b2461177e565b5b611b3188828901611826565b92509250509295509295909350565b611b49816119fd565b82525050565b6000602082019050611b646000830184611b40565b92915050565b60008083601f840112611b8057611b7f611817565b5b8235905067ffffffffffffffff811115611b9d57611b9c61181c565b5b602083019150836020820283011115611bb957611bb8611821565b5b9250929050565b60008083601f840112611bd657611bd5611817565b5b8235905067ffffffffffffffff811115611bf357611bf261181c565b5b602083019150836020820283011115611c0f57611c0e611821565b5b9250929050565b60008060008060408587031215611c3057611c2f611779565b5b600085013567ffffffffffffffff811115611c4e57611c4d61177e565b5b611c5a87828801611b6a565b9450945050602085013567ffffffffffffffff811115611c7d57611c7c61177e565b5b611c8987828801611bc0565b925092505092959194509250565b600060208284031215611cad57611cac611779565b5b6000611cbb848285016117cc565b91505092915050565b600080fd5b60006101608284031215611ce057611cdf611cc4565b5b81905092915050565b6000819050919050565b611cfc81611ce9565b8114611d0757600080fd5b50565b600081359050611d1981611cf3565b92915050565b600080600060608486031215611d3857611d37611779565b5b600084013567ffffffffffffffff811115611d5657611d5561177e565b5b611d6286828701611cc9565b9350506020611d7386828701611d0a565b9250506040611d8486828701611802565b9150509250925092565b611d97816117e1565b82525050565b6000602082019050611db26000830184611d8e565b92915050565b6000611dc382611783565b9050919050565b611dd381611db8565b8114611dde57600080fd5b50565b600081359050611df081611dca565b92915050565b60008060408385031215611e0d57611e0c611779565b5b6000611e1b85828601611de1565b9250506020611e2c85828601611802565b9150509250929050565b600080fd5b7f4e487b7100000000000000000000000000000000000000000000000000000000600052604160045260246000fd5b611e7382611991565b810181811067ffffffffffffffff82111715611e9257611e91611e3b565b5b80604052505050565b6000611ea561176f565b9050611eb18282611e6a565b919050565b600067ffffffffffffffff821115611ed157611ed0611e3b565b5b611eda82611991565b9050602081019050919050565b82818337600083830152505050565b6000611f09611f0484611eb6565b611e9b565b905082815260208101848484011115611f2557611f24611e36565b5b611f30848285611ee7565b509392505050565b600082601f830112611f4d57611f4c611817565b5b8135611f5d848260208601611ef6565b91505092915050565b60008060408385031215611f7d57611f7c611779565b5b6000611f8b858286016117cc565b925050602083013567ffffffffffffffff811115611fac57611fab61177e565b5b611fb885828601611f38565b9150509250929050565b611fcb81611ce9565b82525050565b6000602082019050611fe66000830184611fc2565b92915050565b6000819050919050565b600061201161200c61200784611783565b611fec565b611783565b9050919050565b600061202382611ff6565b9050919050565b600061203582612018565b9050919050565b6120458161202a565b82525050565b6000602082019050612060600083018461203c565b92915050565b600080600080606085870312156120805761207f611779565b5b600061208e878288016117cc565b945050602061209f87828801611802565b935050604085013567ffffffffffffffff8111156120c0576120bf61177e565b5b6120cc87828801611826565b925092505092959194509250565b60008083601f8401126120f0576120ef611817565b5b8235905067ffffffffffffffff81111561210d5761210c61181c565b5b60208301915083602082028301111561212957612128611821565b5b9250929050565b60008060008060008060008060a0898b0312156121505761214f611779565b5b600061215e8b828c016117cc565b985050602061216f8b828c016117cc565b975050604089013567ffffffffffffffff8111156121905761218f61177e565b5b61219c8b828c016120da565b9650965050606089013567ffffffffffffffff8111156121bf576121be61177e565b5b6121cb8b828c016120da565b9450945050608089013567ffffffffffffffff8111156121ee576121ed61177e565b5b6121fa8b828c01611826565b92509250509295985092959890939650565b60008060008060008060a0878903121561222957612228611779565b5b600061223789828a016117cc565b965050602061224889828a016117cc565b955050604061225989828a01611802565b945050606061226a89828a01611802565b935050608087013567ffffffffffffffff81111561228b5761228a61177e565b5b61229789828a01611826565b92509250509295509295509295565b600067ffffffffffffffff8211156122c1576122c0611e3b565b5b6122ca82611991565b9050602081019050919050565b60006122ea6122e5846122a6565b611e9b565b90508281526020810184848401111561230657612305611e36565b5b612311848285611ee7565b509392505050565b600082601f83011261232e5761232d611817565b5b813561233e8482602086016122d7565b91505092915050565b60006020828403121561235d5761235c611779565b5b600082013567ffffffffffffffff81111561237b5761237a61177e565b5b61238784828501612319565b91505092915050565b7f4e487b7100000000000000000000000000000000000000000000000000000000600052602260045260246000fd5b600060028204905060018216806123d757607f821691505b6020821081036123ea576123e9612390565b5b50919050565b7f77726f6e67206172726179206c656e6774687300000000000000000000000000600082015250565b6000612426601383611956565b9150612431826123f0565b602082019050919050565b6000602082019050818103600083015261245581612419565b9050919050565b7f4e487b7100000000000000000000000000000000000000000000000000000000600052603260045260246000fd5b600080fd5b600080fd5b600080fd5b600080833560016020038436030381126124b7576124b661248b565b5b80840192508235915067ffffffffffffffff8211156124d9576124d8612490565b5b6020830192506001820236038313156124f5576124f4612495565b5b509250929050565b7f4e487b7100000000000000000000000000000000000000000000000000000000600052601160045260246000fd5b6000612537826117e1565b91507fffffffffffffffffffffffffffffffffffffffffffffffffffffffffffffffff8203612569576125686124fd565b5b600182019050919050565b7f46756e6374696f6e206d7573742062652063616c6c6564207468726f7567682060008201527f64656c656761746563616c6c0000000000000000000000000000000000000000602082015250565b60006125d0602c83611956565b91506125db82612574565b604082019050919050565b600060208201905081810360008301526125ff816125c3565b9050919050565b7f46756e6374696f6e206d7573742062652063616c6c6564207468726f7567682060008201527f6163746976652070726f78790000000000000000000000000000000000000000602082015250565b6000612662602c83611956565b915061266d82612606565b604082019050919050565b6000602082019050818103600083015261269181612655565b9050919050565b6126a1816117a3565b82525050565b60006020820190506126bc6000830184612698565b92915050565b6126cb81611db8565b82525050565b60006040820190506126e660008301856126c2565b6126f36020830184611d8e565b9392505050565b7f555550535570677261646561626c653a206d757374206e6f742062652063616c60008201527f6c6564207468726f7567682064656c656761746563616c6c0000000000000000602082015250565b6000612756603883611956565b9150612761826126fa565b604082019050919050565b6000602082019050818103600083015261278581612749565b9050919050565b60008151905061279b816117eb565b92915050565b6000602082840312156127b7576127b6611779565b5b60006127c58482850161278c565b91505092915050565b6000819050919050565b600077ffffffffffffffffffffffffffffffffffffffffffffffff82169050919050565b600061281761281261280d846127ce565b611fec565b6127d8565b9050919050565b612827816127fc565b82525050565b60006040820190506128426000830185612698565b61284f602083018461281e565b9392505050565b7f496e697469616c697a61626c653a20636f6e747261637420697320616c72656160008201527f647920696e697469616c697a6564000000000000000000000000000000000000602082015250565b60006128b2602e83611956565b91506128bd82612856565b604082019050919050565b600060208201905081810360008301526128e1816128a5565b9050919050565b6000819050919050565b600060ff82169050919050565b600061291a612915612910846128e8565b611fec565b6128f2565b9050919050565b61292a816128ff565b82525050565b60006020820190506129456000830184612921565b92915050565b7f6163636f756e743a206e6f742066726f6d20456e747279506f696e7400000000600082015250565b6000612981601c83611956565b915061298c8261294b565b602082019050919050565b600060208201905081810360008301526129b081612974565b9050919050565b600081519050919050565b600081905092915050565b60006129d8826129b7565b6129e281856129c2565b93506129f2818560208601611967565b80840191505092915050565b6000612a0a82846129cd565b915081905092915050565b600081519050612a2481611cf3565b92915050565b600060208284031215612a4057612a3f611779565b5b6000612a4e84828501612a15565b91505092915050565b7f45524331393637557067726164653a206e657720696d706c656d656e7461746960008201527f6f6e206973206e6f742055555053000000000000000000000000000000000000602082015250565b6000612ab3602e83611956565b9150612abe82612a57565b604082019050919050565b60006020820190508181036000830152612ae281612aa6565b9050919050565b7f45524331393637557067726164653a20756e737570706f727465642070726f7860008201527f6961626c65555549440000000000000000000000000000000000000000000000602082015250565b6000612b45602983611956565b9150612b5082612ae9565b604082019050919050565b60006020820190508181036000830152612b7481612b38565b9050919050565b7f4465636f64696e67207369676e61747572650000000000000000000000000000600082015250565b6000612bb1601283611956565b9150612bbc82612b7b565b602082019050919050565b60006020820190508181036000830152612be081612ba4565b9050919050565b60008060008060808587031215612c0157612c00611779565b5b600085013567ffffffffffffffff811115612c1f57612c1e61177e565b5b612c2b87828801612319565b945050602085013567ffffffffffffffff811115612c4c57612c4b61177e565b5b612c5887828801612319565b935050604085013567ffffffffffffffff811115612c7957612c7861177e565b5b612c8587828801612319565b925050606085013567ffffffffffffffff811115612ca657612ca561177e565b5b612cb287828801611f38565b91505092959194509250565b7f566572696679696e6720546f6b656e0000000000000000000000000000000000600082015250565b6000612cf4600f83611956565b9150612cff82612cbe565b602082019050919050565b60006020820190508181036000830152612d2381612ce7565b9050919050565b600082825260208201905092915050565b6000612d46826129b7565b612d508185612d2a565b9350612d60818560208601611967565b612d6981611991565b840191505092915050565b60008190508160005260206000209050919050565b60008154612d96816123bf565b612da08186611956565b94506001821660008114612dbb5760018114612dd157612e04565b60ff198316865281151560200286019350612e04565b612dda85612d74565b60005b83811015612dfc57815481890152600182019150602081019050612ddd565b808801955050505b50505092915050565b600060a0820190508181036000830152612e2781886119a2565b90508181036020830152612e3b81876119a2565b90508181036040830152612e4f81866119a2565b90508181036060830152612e638185612d3b565b90508181036080830152612e778184612d89565b90509695505050505050565b612e8c81611a82565b8114612e9757600080fd5b50565b600081519050612ea981612e83565b92915050565b600060208284031215612ec557612ec4611779565b5b6000612ed384828501612e9a565b91505092915050565b7f546f6b656e207665726966696564000000000000000000000000000000000000600082015250565b6000612f12600e83611956565b9150612f1d82612edc565b602082019050919050565b60006020820190508181036000830152612f4181612f05565b9050919050565b50565b6000612f586000836129c2565b9150612f6382612f48565b600082019050919050565b6000612f7982612f4b565b9150819050919050565b60006020601f8301049050919050565b600082821b905092915050565b600060088302612fd07fffffffffffffffffffffffffffffffffffffffffffffffffffffffffffffffff82612f93565b612fda8683612f93565b95508019841693508086168417925050509392505050565b600061300d613008613003846117e1565b611fec565b6117e1565b9050919050565b6000819050919050565b61302783612ff2565b61303b61303382613014565b848454612fa0565b825550505050565b600090565b613050613043565b61305b81848461301e565b505050565b5b8181101561307f57613074600082613048565b600181019050613061565b5050565b601f8211156130c45761309581612d74565b61309e84612f83565b810160208510156130ad578190505b6130c16130b985612f83565b830182613060565b50505b505050565b600082821c905092915050565b60006130e7600019846008026130c9565b1980831691505092915050565b600061310083836130d6565b9150826002028217905092915050565b6131198261194b565b67ffffffffffffffff81111561313257613131611e3b565b5b61313c82546123bf565b613147828285613083565b600060209050601f83116001811461317a5760008415613168578287015190505b61317285826130f4565b8655506131da565b601f19841661318886612d74565b60005b828110156131b05784890151825560018201915060208501945060208101905061318b565b868310156131cd57848901516131c9601f8916826130d6565b8355505b6001600288020188555050505b505050505050565b600081905092915050565b60006131f88261194b565b61320281856131e2565b9350613212818560208601611967565b80840191505092915050565b600061322a82846131ed565b915081905092915050565b7f455243313936373a206e657720696d706c656d656e746174696f6e206973206e60008201527f6f74206120636f6e747261637400000000000000000000000000000000000000602082015250565b6000613291602d83611956565b915061329c82613235565b604082019050919050565b600060208201905081810360008301526132c081613284565b9050919050565b7f416464726573733a2063616c6c20746f206e6f6e2d636f6e7472616374000000600082015250565b60006132fd601d83611956565b9150613308826132c7565b602082019050919050565b6000602082019050818103600083015261332c816132f0565b905091905056fe416464726573733a206c6f772d6c6576656c2064656c65676174652063616c6c206661696c6564a26469706673582212203d47921163c60b829154868aeb4a43cc2a846911e18471c61ab7a06c2c288acb64736f6c63430008140033",
    "linkReferences": {}
  },
  "methodIdentifiers": {
    "addDeposit()": "4a58db19",
    "entryPoint()": "b0d691fe",
    "execute(address,uint256,bytes)": "b61d27f6",
    "executeBatch(address[],bytes[])": "18dfb3c7",
    "getDeposit()": "c399ec88",
    "getNonce()": "d087d288",
    "initialize(string)": "f62d1888",
    "onERC1155BatchReceived(address,address,uint256[],uint256[],bytes)": "bc197c81",
    "onERC1155Received(address,address,uint256,uint256,bytes)": "f23a6e61",
    "onERC721Received(address,address,uint256,bytes)": "150b7a02",
    "ownerId()": "019c08f5",
    "proxiableUUID()": "52d1902d",
    "supportsInterface(bytes4)": "01ffc9a7",
    "tokensReceived(address,address,address,uint256,bytes,bytes)": "0023de29",
    "upgradeTo(address)": "3659cfe6",
    "upgradeToAndCall(address,bytes)": "4f1ef286",
    "validateUserOp((address,uint256,bytes,bytes,uint256,uint256,uint256,uint256,uint256,bytes,bytes),bytes32,uint256)": "3a871cdd",
    "withdrawDepositTo(address,uint256)": "4d44560d"
  },
  "id": 48
}